:08090800D2B18FA07F017E0037
:10091000E4FDFCC3ED9FEE6480F8EC648098501514
:10092000E4FBFA0BBB00010ABA03F8BBE8F50DBD06
:0509300000010C80DE57
:01093500229F
:08095100D2B0120908C2B12264
:08095900C2B0120908C2B1226C
:1008AE007F381209597F011209597F0E1209597F9B
:1008BE00801209597F451209517F4E1209517F54FA
:1008CE001209517F451209517F521209517F201290
:1008DE0009517F501209517F411209517F5312095C
:1008EE00517F531209517F571209517F4F120951EF
:0A08FE007F521209517F4402095194
:0F0936007F381209597F0E1209597FC0020959E3
:100800001208AE120936D292D291D290D296D295D7
:10081000D294D293C2902093087F31120951309321
:10082000FD2094087F341209513094FD2095087FF3
:10083000371209513095FD2096087F2A1209513050
:1008400096FDD290C2912093087F321209513093C5
:10085000FD2094087F351209513094FD2095087FC2
:10086000381209513095FD2096087F301209513019
:1008700096FDD291C2922093087F33120951309392
:10088000FD2094087F361209513094FD2095087F91
:10089000391209513095FD2096087F2312095130F5
:0E08A00096FDD2927F0A7E0012091002081403
:03000000020945AD
:0C094500787FE4F6D8FD758107020800F9
:00000001FF
