:100A2100456E7465722050617373776F7264002034
:100A310020202020202020202020202020202020B5
:100A410000596F7520522057656C636F6D650041C9
:100A510067656E740053656372657420436F6465E6
:100A6100206973003535386464667738380054720C
:100A71007920616761696E002020202020202020DC
:030A810020200032
:080A8400D2B18FA07F017E00BA
:100A8C00E4FDFCC3ED9FEE6480F8EC648098501597
:100A9C00E4FBFA0BBB00010ABA03F8BBE8F50DBD89
:050AAC0000010C80DEDA
:010AB1002222
:080B4900D2B0120A84C2B122ED
:0E0B18007F2C7E01120A8C7F01120B267F803B
:080B2600C2B0120A84C2B12220
:100ADD008B0E8A0F8910AB0EAA0FA910120AB2FF46
:100AED006010120B4974012510F510E4350FF50F48
:030AFD0080E42270
:100B00007F38120B267F01120B267F0E120B217BE2
:080B1000FF7A0A7921020ADDD7
:0F0B2E007F38120B267F0E120B267FC0020B267C
:10080000E4F50AF50BF508F509120B00120B2ED2D0
:1008100092D291D290D296D295D294D293C2902075
:10082000931C7F31120B493093FDAE08AF097C0059
:100830007D0A120ACBEF2401F509E43EF508209465
:100840001C7F34120B493094FDAE08AF097C007D4B
:100850000A120ACBEF2404F509E43EF50820951CA2
:100860007F37120B493095FDAE08AF097C007D0A39
:10087000120ACBEF2407F509E43EF50820961B3059
:1008800096FDE4F508F5097FC0120B267BFF7A0A76
:100890007930120ADD7FC0120B26D290C2912093CC
:1008A0001C7F32120B493093FDAE08AF097C007DEE
:1008B0000A120ACBEF2402F509E43EF50820941C45
:1008C0007F35120B493094FDAE08AF097C007D0ADC
:1008D000120ACBEF2405F509E43EF50820951C7FAC
:1008E00038120B493095FDAE08AF097C007D0A1225
:1008F0000ACBEF2408F509E43EF5082096177F306F
:10090000120B493096FDAE08AF097C007D0A120A31
:10091000CB8E088F09D291C29220931C7F33120B89
:10092000493093FDAE08AF097C007D0A120ACBEF77
:100930002403F509E43EF50820941C7F36120B4988
:100940003094FDAE08AF097C007D0A120ACBEF247B
:1009500006F509E43EF50820951C7F39120B493055
:1009600095FDAE08AF097C007D0A120ACBEF240981
:10097000F509E43EF50820960F3096FD750C0075DC
:100980000D01750A00750B14D2927F0A7E00120ABF
:100990008CE50B6414450A600302081DE509650D2A
:1009A0007004E508650C70457F01120B267BFF7A09
:1009B0000A7942120ADD7FC0120B267BFF7A0A7980
:1009C00050120ADD120B187BFF7A0A7956120ADDE3
:1009D0007FC0120B267BFF7A0A7965120ADD120BA3
:1009E00018E4F508F509F50AF50B02081D7FC01299
:1009F0000B267BFF7A0A796F120ADD7F647E001274
:100A00000A8C7FC0120B267BFF7A0A7979120ADDE5
:100A10007FC0120B26E4F508F509F50AF50B02086C
:010A20001DB8
:03000000020B3DB3
:0C0B3D00787FE4F6D8FD758110020800F6
:100AB200BB010689828A83E0225002E722BBFE0242
:090AC200E32289828A83E4932275
:100ACB00EF8DF0A4A8F0CF8CF0A428CE8DF0A42E3F
:020ADB00FE22F9
:00000001FF
